{
  "_format": "hh-sol-artifact-1",
  "contractName": "EvidenceStore",
  "sourceName": "contracts/EvidenceStore.sol",
  "abi": [
    {
      "inputs": [],
      "name": "evidenceCount",
      "outputs": [
        {
          "internalType": "uint256",
          "name": "",
          "type": "uint256"
        }
      ],
      "stateMutability": "view",
      "type": "function"
    },
    {
      "inputs": [
        {
          "internalType": "uint256",
          "name": "_id",
          "type": "uint256"
        }
      ],
      "name": "getEvidence",
      "outputs": [
        {
          "internalType": "string",
          "name": "",
          "type": "string"
        }
      ],
      "stateMutability": "view",
      "type": "function"
    },
    {
      "inputs": [
        {
          "internalType": "string",
          "name": "_hash",
          "type": "string"
        }
      ],
      "name": "storeEvidence",
      "outputs": [],
      "stateMutability": "nonpayable",
      "type": "function"
    }
  ],
  "bytecode": "0x6080604052348015600f57600080fd5b506107f38061001f6000396000f3fe608060405234801561001057600080fd5b50600436106100415760003560e01c806334dbf0e114610046578063a2ed5af014610062578063c956f14314610080575b600080fd5b610060600480360381019061005b91906102f1565b6100b0565b005b61006a6100ed565b6040516100779190610353565b60405180910390f35b61009a6004803603810190610095919061039a565b6100f3565b6040516100a79190610446565b60405180910390f35b600160008154809291906100c390610497565b919050555080600080600154815260200190815260200160002090816100e991906106eb565b5050565b60015481565b606060008083815260200190815260200160002080546101129061050e565b80601f016020809104026020016040519081016040528092919081815260200182805461013e9061050e565b801561018b5780601f106101605761010080835404028352916020019161018b565b820191906000526020600020905b81548152906001019060200180831161016e57829003601f168201915b50505050509050919050565b6000604051905090565b600080fd5b600080fd5b600080fd5b600080fd5b6000601f19601f8301169050919050565b7f4e487b7100000000000000000000000000000000000000000000000000000000600052604160045260246000fd5b6101fe826101b5565b810181811067ffffffffffffffff8211171561021d5761021c6101c6565b5b80604052505050565b6000610230610197565b905061023c82826101f5565b919050565b600067ffffffffffffffff82111561025c5761025b6101c6565b5b610265826101b5565b9050602081019050919050565b82818337600083830152505050565b600061029461028f84610241565b610226565b9050828152602081018484840111156102b0576102af6101b0565b5b6102bb848285610272565b509392505050565b600082601f8301126102d8576102d76101ab565b5b81356102e8848260208601610281565b91505092915050565b600060208284031215610307576103066101a1565b5b600082013567ffffffffffffffff811115610325576103246101a6565b5b610331848285016102c3565b91505092915050565b6000819050919050565b61034d8161033a565b82525050565b60006020820190506103686000830184610344565b92915050565b6103778161033a565b811461038257600080fd5b50565b6000813590506103948161036e565b92915050565b6000602082840312156103b0576103af6101a1565b5b60006103be84828501610385565b91505092915050565b600081519050919050565b600082825260208201905092915050565b60005b838110156104015780820151818401526020810190506103e6565b60008484015250505050565b6000610418826103c7565b61042281856103d2565b93506104328185602086016103e3565b61043b816101b5565b840191505092915050565b60006020820190508181036000830152610460818461040d565b905092915050565b7f4e487b7100000000000000000000000000000000000000000000000000000000600052601160045260246000fd5b60006104a28261033a565b91507fffffffffffffffffffffffffffffffffffffffffffffffffffffffffffffffff82036104d4576104d3610468565b5b600182019050919050565b7f4e487b7100000000000000000000000000000000000000000000000000000000600052602260045260246000fd5b6000600282049050600182168061052657607f821691505b602082108103610539576105386104df565b5b50919050565b60008190508160005260206000209050919050565b60006020601f8301049050919050565b600082821b905092915050565b6000600883026105a17fffffffffffffffffffffffffffffffffffffffffffffffffffffffffffffffff82610564565b6105ab8683610564565b95508019841693508086168417925050509392505050565b6000819050919050565b60006105e86105e36105de8461033a565b6105c3565b61033a565b9050919050565b6000819050919050565b610602836105cd565b61061661060e826105ef565b848454610571565b825550505050565b600090565b61062b61061e565b6106368184846105f9565b505050565b5b8181101561065a5761064f600082610623565b60018101905061063c565b5050565b601f82111561069f576106708161053f565b61067984610554565b81016020851015610688578190505b61069c61069485610554565b83018261063b565b50505b505050565b600082821c905092915050565b60006106c2600019846008026106a4565b1980831691505092915050565b60006106db83836106b1565b9150826002028217905092915050565b6106f4826103c7565b67ffffffffffffffff81111561070d5761070c6101c6565b5b610717825461050e565b61072282828561065e565b600060209050601f8311600181146107555760008415610743578287015190505b61074d85826106cf565b8655506107b5565b601f1984166107638661053f565b60005b8281101561078b57848901518255600182019150602085019450602081019050610766565b868310156107a857848901516107a4601f8916826106b1565b8355505b6001600288020188555050505b50505050505056fea2646970667358221220945ab1535af8216300dd45de210fece6251b5dab39c6ca3ea5dfb0e5a3bcc62064736f6c634300081c0033",
  "linkReferences": {},
  "deployedLinkReferences": {}
}